:1000000000000320D101000089530000415300008B
:100010004153000041530000415300004153000090
:100020004153000041530000415300008953000038
:100030008953000041530000CD6E00001D71000087
:100040008953000089530000895300008953000040
:100050008953000089530000895300008953000030
:100060008953000089530000895300008953000020
:100070008953000089530000895300008953000010
:100080008953000089530000895300008953000000
:1000900089530000895300008953000089530000F0
:1000A000792D0000B12E0000895300008953000013
:1000B0008953000089530000895300003D790000F6
:1000C00089530000697A000089530000957B000085
:1000D000895300008D7C0000895300008953000083
:1000E00089530000895300008953000089530000A0
:1000F000F52800008953000089530000895300004F
:10010000895300008953000089530000895300007F
:1001100089530000115F00008953000089530000DB
:10012000895300008953000089530000895300005F
:10013000895300008953000089530000895300004F
:100140008953000089530000857D00008953000019
:10015000895300008953000089530000895300002F
:100160008953000089530000E92F000089530000E3
:10017000895300008953000089530000895300000F
:1001800089530000895300008953000089530000FF
:1001900089530000895300007D7E000089530000D0
:1001A00089530000895300008953000089530000DF
:1001B00089530000895300008953000089530000CF
:1001C00089530000895300008953000089530000BF
:1001D0005C4B4CF2205210B51A804DF628121A8052
:1001E00000BF00BF05F0D4F8574B4FF030621A60E3
:1001F000564A9A60564ADA60564B4FF470021A60BB
:10020000554B564A1A60564A136813F4807304D14A
:1002100054490B604FF4A8531360534B1A781107DD
:1002200003D51A7842F008021A70504B5049AA229E
:100230001A70504A504B8B4204D252F8040F43F8C4
:10024000040BF8E74D4B4E4900228B4202D243F893
:10025000042BFAE74B494C4A002352F8230041F89B
:1002600023000133742BF8D1484B494A802103F80D
:10027000011B9342FBD1474B424A1A60464B8A22EC
:100280001A70A3F5805324225A70A0221A709A790A
:100290009207FCD59A79D406FCD4404A937903F0AE
:1002A0000C03082BFAD13E4B60221A7002331A78E5
:1002B000802AFCD1394B01221A715D225A719A7938
:1002C0009006FCD59979354A4906FBD5354B364918
:1002D00019600021596020231370937903F00C03F7
:1002E0000C2BFAD1314B324A1A60324B324A1A6027
:1002F00000225A60072243F8042C304AC3F80C2D20
:1003000062B605F02BF9174B1B68DA0705D52C48A8
:1003100005F012F92B4B2C4A1A602C4B1B785B060C
:1003200009D5284C284B22689A4204D1244805F06C
:1003300003F90023236008F029FB05F02FF806F0ED
:10034000F5FEFEE70E20054030800440823F0400A9
:100350000100002B88ED00E0002008E0030000858C
:1003600010D0034014D0034002D0074000E0074003
:10037000B419FF1FD0F90000400CFF1FB419FF1F74
:10038000282DFF1F0002FF1F0000000000E400E016
:1003900064E400E008ED00E0005006400040064044
:1003A00001E007404480044000000602048004404D
:1003B000C010070014E000E01FBF02000000202072
:1003C0002F19CE031CE00340A5C3945A00F0074048
:1003D000FFFFFFFFFFFFFFFFFFFFFFFFFFFFFFFF2D
:1003E000FFFFFFFFFFFFFFFFFFFFFFFFFFFFFFFF1D
:1003F000FFFFFFFFFFFFFFFFFFFFFFFFFFFFFFFF0D
:10040000FFFFFFFFFFFFFFFFFFFFFFFFDEF9FFFF23
:1004100010B5054C237833B9044B13B10448AFF33E
:1004200000800123237010BDB419FF1F00000000DD
:10043000D4F90000084B10B51BB108490848AFF3C8
:1004400000800848036803B910BD074B002BFBD0A0
:10045000BDE81040184700BF00000000B819FF1F9A
:10046000D4F90000B419FF1F00000000024A5368CD
:1004700001335360704700BFDC21FF1FF8B5002136
:100480005348544C06F08CFB534806F0E5FE172108
:10049000524806F085FB504806F0DEFE204603F089
:1004A0003BF9204641F2883103F066F94C4A9FED52
:1004B0004D7AD2ED007ADFED4C6A4C4BE26027EECC
:1004C000877A9A60C6EE877A49491C605960494824
:1004D000A160FDEEE77A17EE902AC2EB02135B00F3
:1004E000B3F5803FC0ED007A3AD3B3F5003F1AD39D
:1004F000B3F5802F43D3B3F5002F38D3B3F5801F66
:1005000045D3B3F5001F52D3B3F5800F47D3B3F5EE
:10051000000F54D33849394A07204FF6FF7308704B
:1005200013802F2006E03548334A5B080121038001
:1005300011702920324A334F1168334D334C344EF9
:1005400001F040010143002010603B60116013681E
:100550002E604FF4805143F0400313602160F8BDDA
:100560002549264A0020087013802820E2E7234806
:10057000214ADB080321038011702B20DAE71F4892
:100580001D4A9B080221038011702A20D2E71B48D4
:10059000194A1B090421038011702C20CAE717484F
:1005A000154A9B090621038011702E20C2E71348CB
:1005B000114A5B090521038011702D20BAE70F480D
:1005C0000D4ADB090721038011702F20B2E700BF1D
:1005D000BCF50000F021FF1F6810FF1FBC93000056
:1005E000DC21FF1F0000C042C0E1644CA422FF1FB9
:1005F000941AFF1FD019FF1F9E28FF1F9C28FF1F62
:1006000000800B4008800B40600DFF1F04E100E0FC
:100610006D04000070B5654C204602F007FED4ED75
:10062000007A9FED637ADFED636A634B27EE877A8A
:100630001A68C6EE877AFDEEE77A17EE903A9A428C
:1006400015D0C3EB03135B00B3F5803F2CD25B499D
:100650005B4A00200870138028205A4A5A4D1168BE
:1006600001F040010143002010602B6011605748E9
:100670004E4E04F023FAE56823699D420FD02946C7
:100680005348356104F0D6FC2946524804F0F0FB8B
:10069000B368F2689B1A012B33DD092B12DD434846
:1006A000BDE8704002F0E8BDB3F5003F13D3B3F5E9
:1006B000802F18D24248414A9B08022103801170C2
:1006C0002A20CAE72946414804F08AF83748BDE89D
:1006D000704002F0D1BD3A48384A5B0801210380DE
:1006E00011702920B9E7B3F5002F25D3B3F5801F8A
:1006F0002ED23348314A1B090421038011702C206B
:10070000ABE72946344803F067F8344BA3FB0523D5
:100710001B09013B9B0717D0314AB2F90030002B6F
:1007200021DD123B1BB219461380172005F058F843
:10073000A368E2689B1AB0E72148204ADB0803213E
:10074000038011702B2088E7254BFF211980ECE7EF
:10075000B3F5001F0AD21A48184A5B090521038025
:1007600011702D2079E700210B46DDE7B3F5800FEE
:1007700007D21348114A9B090621038011702E20CD
:100780006BE7B3F5000F07D20D480C4ADB090721D0
:10079000038011702F2060E70849094A07204FF6AF
:1007A000FF73087013802F2057E700BFDC21FF1F65
:1007B0000000C042C0E1644CD019FF1F9E28FF1FFB
:1007C0009C28FF1F00800B4008800B40A422FF1FC5
:1007D000941AFF1FD419FF1FF021FF1FABAAAAAA6A
:1007E0009823FF1F2DE9F8431E4D1F4CDFF8A490FE
:1007F0001E4EDFF8A4801E4F284604F0F3FA22466E
:100800001C49284608F0B0F89FED1B0A484602F044
:10081000CDFC22461949484608F0A6F8304602F0B9
:1008200003FE22461649304608F09EF8404604F082
:100830000FFC224640461349134E08F095F829460E
:10084000384604F05FFB22461049384608F08CF821
:10085000304603F06FFD224630460D49BDE8F843AF
:1008600008F082B8D419FF1F1C0DFF1FF021FF1FD5
:10087000941AFF1FF54D00000000C4422932000009
:100880009934000065500000A422FF1F155000009D
:10089000A1440000DC21FF1F9823FF1F00207047A8
:1008A000704700BF30B5A1F1280383B00546252B62
:1008B00014D8DFE803F055282525414B13131313F3
:1008C00013131313131313131313131313131313F8
:1008D000131313131313131313132E2E3F2959D964
:1008E00001F03F016B1893F82900FF2808D00F2969
:1008F00052D905F087F9003018BF012085F824008F
:10090000012003B030BD104605F0C6F9012003B048
:1009100030BD01F03F0101920D44002A33D1012185
:1009200095F8290005F07CF9019A95F829001146FF
:1009300005F044F90120E4E7002A14BF3C2200221C
:10094000002ADDD0013AFDD10120DAE7022A8CBF6E
:1009500078234FF49673013BFDD1012003B030BDE5
:100960002835002415F8013FFF2B4FF001011846F0
:1009700005D00F2C84BF1846022105F051F901342F
:10098000162CEFD1BCE795F82900022105F048F9B3
:100990000120B6E70020B4E7114605F00FF9012069
:1009A000AFE700BF1439F8B504460C2900F2D8802F
:1009B000DFE811F01300D600D6001E003500AC00B1
:1009C000D600D600D600D600D600D6000D002046B0
:1009D0004A2101F0D1FB0120F8BD236820465A7856
:1009E000492101F0C9FB654801F044FF0120F8BD31
:1009F000002A00F0B3806149501E53FA80F00A6863
:100A00004FF00044591E11F8013FD4625363D36A7A
:100A1000002BFCDA8842936BF5D10120F8BD2168E8
:100A20000B7B013BDBB2022B00F29C80544A8F68A7
:100A3000D35C03F0080C03F004035FFA8CFCD8B21B
:100A4000504EDFF870E1002502E0172A08D0154665
:100A500036F8023F9EFBF3F39F4205F10102F4D307
:100A6000494BBCF1000F0BBF4FF068574FF0785760
:100A70004FF060564FF0705653F8252030B11309EF
:100A800003F4706322F470423E461A433B4BD87A1B
:100A9000324308B372B6D87AC507014606D53B4E35
:100AA000D96835680D40DD6101463560800706D59F
:100AB000374819690568294019620160D97A4F07DA
:100AC00006D5344859690568294059620160D97AC8
:100AD0000E074BD462B621681B68D868904207D0D5
:100AE0002D4D1D602D48DA6042F080451D61186073
:100AF0000A782046492101F03FFB236865699A780E
:100B0000204600232C21A8470120F8BD23686569F1
:100B1000DA782C2100232046A847236849215A78F7
:100B2000204601F029FB154BDA7A1146B2B1D50700
:100B300003D51B49D86908601146940703D5194AA3
:100B4000196A1160D97A480703D5174A596A1160A2
:100B5000D97A0A0702D5154A9B6A13600120F8BDAD
:100B60000020F8BD002084468F6869E71048996925
:100B70000568294099620160ACE700BF200DFF1FA6
:100B8000D493000036F0000068F0000080E100E03F
:100B900084E100E088E100E001401F0000001F80C8
:100BA00000E100E004E100E008E100E00CE100E029
:100BB0008CE100E00087930380F8321080F8332046
:100BC00080F83430704700BF80F89010704700BF45
:100BD0002DE9F04F89B093469DF84840039426468E
:100BE000059314190B44DDB2E4B22B460094049132
:100BF0000695074600F04AFF002852D0002E50D03C
:100C0000059B0733C3F3C40307930BF101095FFA94
:100C100089F9CDF80090069B049997F891A05A465F
:100C2000384600F033FF88B3059B6BB31D46049E26
:100C3000DDF84C80012411E097F89030EBB16400AE
:100C400014F0FF0405F1FF3506F1010604BF08F1B9
:100C50000108012415F0FF05F6B215D098F8003010
:100C60001C42E9D0002387F891A0009301235A4643
:100C70003146384600F0F6FEE1E7BAFA8AF2520948
:100C8000009387F89120F1E787F891A0039B139ACE
:100C90000799013B0A4413F0FF031392CB460393D9
:100CA000B3D109B0BDE8F08F2DE9F04383B01F4602
:100CB0009DF828505319DBB201EB070E00935FFA41
:100CC0008EF314460E46804600F0E0FE80B17DB102
:100CD0004FF000093B462246CDF800903146404691
:100CE00000F0C0FE6B1E013413F0FF05E4B2F1D139
:100CF00003B0BDE8F08300BF2DE9F04F83B0CD18FD
:100D00009DF8309002EB0904EDB2E4B298460094ED
:100D10002B460E461746824600F0B8FE10B903B0C7
:100D2000BDE8F08F002300933A46434631465046D3
:100D30004FF0010B00F096FE4B463A4631465046C6
:100D4000CDF800B000F08EFE691E4B463A46504684
:100D5000CDF800B0C9B200F085FE621E00230C93EE
:100D6000D2B243463146504603B0BDE8F04F00F0E2
:100D700079BE00BF2DE9F043036890F84C8093F8EA
:100D8000119090F84D7083B00646002502E0994519
:100D900018D933681B7CB06CD90005FB01F14FF604
:100DA000F872ECB20A40024439190134009230461C
:100DB000CAB201350021E4B201F010F97B19A04557
:100DC000DBB2E4D803B0BDE8F08300BF026890F85E
:100DD0004C30127C806C12FB03F20021D20008F030
:100DE000BDB800BF10B50446FFF7C4FF2046BDE8FC
:100DF000104001F02FB900BF10B590F892300446B2
:100E000053B1026890F84C30127C806C12FB03F2F4
:100E1000D200002108F0A2F8636C002284F84D2073
:100E200020461B68BDE81040184700BF38B504468F
:100E3000FFF7A0FF94F84D5094F84C3022681D4401
:100E4000517CEDB2A94213D994F8921039B9636C70
:100E500084F84D5020461B689847012038BD127C0D
:100E6000A06C12FB03F2D200002108F077F8EEE745
:100E7000204601F0EFF8002038BD00BF10B5044651
:100E8000FFF7BAFF2046FFF7D1FF0028FAD110BDC7
:100E900008230370004870479C23FF1F30B585B0BE
:100EA0000D46009309491346094A044601F06CF9BE
:100EB0000DF10F00FFF7ECFF9DF80F2000950146A4
:100EC000044B204600F034FF05B030BD692000001F
:100ED000251F0000D91A00004318405C5B7803EB23
:100EE000002080B2704700BF012B0BD007D3022B2C
:100EF00002D1801AC0B27047401AC0B27047104485
:100F0000C0B270470844C0B2704700BF012B0BD07D
:100F100007D3022B02D1401AC0B270471044C0B2AE
:100F200070470844C0B27047801AC0B2704700BF13
:100F30000020704790F88D000130C0B2704700BFAC
:100F400090F88E2090F88D309B1A5BB203EBD37330
:100F500002EB6300C0B270472DE9F0474FF0000A82
:100F600080F86CA08946044600F04CFF09F1FF3977
:100F70005546D0464FF6FF764FF6FE77626819F871
:100F8000011F20469047B04200F0F180B842F5D0F2
:100F9000E36DFF2803F1170212D8602840F2E080C9
:100FA000B4F888301A44537843B11178814208BFAD
:100FB000931C1AD01A445378002BF6D19A46BEE0FF
:100FC000B4F88A10531812F801A05A7852EA0A228B
:100FD00008D1C3E09A78134419785A7852EA01226A
:100FE00000F0BC809042F5D10333002BE6D094F89A
:100FF0007820636684F86E80072A93F800E040F258
:10100000A1800133A2F108016366C9B2012000FA90
:1010100002F2013A94F879A084F86E100EEA020206
:1010200084F86C2001EB0A0293F800C0D2B2072AC0
:101030004CFA01FC40F28880581C6066C1F108013E
:101040005B78C9B28B40083A43EA0C03D2B25FFA2C
:1010500083FC012101FA0AF394F891E084F86E20F0
:10106000013B0CEA0303BEFA8EF194F87AC084F8CF
:101070006D30490984F8711084F870E00CEB0201BE
:1010800090F800A0C9B207294AFA02FA60D900F123
:10109000010EC4F864E0C2F108024078D2B200FA4E
:1010A00002F2083942EA0A02C9B2D2B24FF0010A8A
:1010B00094F87B3084F86E100AFA0CF00CF1FF3CC7
:1010C00001385FFA8CFC0B441040DBB20AFA0CF2D8
:1010D000821A072B84F88F2004D9D644083BC4F821
:1010E00064E0DBB294F87CC084F86E300CEB030053
:1010F0009EF80020C0B2072842FA03F22CD90EF164
:1011000001016166C3F108039EF80110DBB201FA28
:1011100003F308381343C0B2DAB24FF0010E0EFAEF
:101120000CF10CF1FF3C01395FFA8CFC02EA01037F
:101130000EFA0CF29A1A84F86E005FFA82FA55449D
:10114000EDB21BE7114661E75FFA8CFC184680E7B9
:101150005FFA8AF28646A9E7D2B2DEE79246EEE768
:1011600040287FF620AFB4F886301A4423E794F97C
:101170006C303BB194F88F2013441D44CAEB050238
:1011800002F0FF052846BDE8F08700BF2DE9F04FCB
:1011900090F878404166002380F86E30072C8BB0C1
:1011A0000D7840F245810131A4F108024166D2B2C6
:1011B0000123A340013B1D4090F879E080F86E20A8
:1011C0006EB280F86C6002EB0E030C78DBB2072B7A
:1011D00044FA02F440F236814F1C4766C2F108021D
:1011E0004978D2B201FA02F2083B2243DBB2D2B212
:1011F000012404FA0EF490F8911090F87AE080F847
:101200006E30013C1440B1FA81FC62B24FEA5C1CC2
:1012100080F86D20089280F8701080F871C00EEB95
:10122000030297F800C0D2B2072A4CFA03FC40F23E
:101230000581791C4166C3F108037F78DBB207FAA8
:1012400003F3083A43EA0C03D2B2DBB24FF0010CCD
:101250000CFA0EF890F87B7080F86E200EF1FF3ECD
:1012600008F1FF385FFA8EFE03EA08030CFA0EF865
:1012700007EB020CC8EB030891F800E05FFA8CF36F
:10128000072B4FFA88F84EFA02FE40F2D38001F1A4
:101290000109C0F86490C2F108024978D2B201FA9B
:1012A00002F2083B42EA0E02DBB2D2B290F87CC0F6
:1012B00080F86E30791E4FF0010AC9B20CEB030EB4
:1012C0000AFA01F15FFA8EFE0AFA07FA99F800703D
:1012D000611A0AF1FF3ABEF1070FC9B202EA0A0227
:1012E00047FA03F70FD909F1010AC0F864A0C3F166
:1012F000080399F80190DBB209FA03F3AEF1080E86
:101300001F435FFA8EFE4FF0010909FA0CF30CF14E
:10131000FF3CFFB2013B5FFA8CFC3B4009FA0CFC3E
:10132000CCEB03035BB2002E80F86EE009937BDD0B
:101330008E1890F87290764276B28346324690F8D4
:1013400068004B464146FFF7E1FD32468BF86800E6
:10135000074641469BF869004B46FFF7C5FD02462C
:101360008BF86900B9F1030F00F26181DFE819F031
:10137000000105010E016D004F444646FFB2069C78
:10138000DDF80CE0DDF810808BF86A708BF86BA04C
:10139000C7EB08085FFA88F84FFA87F9A04533468B
:1013A00052467046494640F2FE80FFF7AFFD334695
:1013B000804652460298FFF797FD9BF870300096E2
:1013C000024641468BF891305846234600F04AFBCE
:1013D0003C449BF86E00DBF864108BF86BA064B2A1
:1013E0008BF86A40421C0B78D2B2072A43FA00F30A
:1013F000554640F2FE804E1CCBF864604978C0F13F
:101400000802D2B201FA02F21343C21F3146DBB224
:10141000D2B2DB078BF86E205AD4089B53452CDCE4
:101420009BF870308BF8913009980BB0BDE8F08FC5
:101430002246BDE65FFA8EF2894637E75FFA8CF303
:10144000394603E7E2B20F46D2E6C5F10100511C6E
:1014500010443B19DBB2C2B2C9B2009158463946BA
:1014600000F014FB0028DFD000239BF86E20DBF88F
:1014700064108BF86A308BF86B309BF876600D78CF
:10148000B018C0B2072845FA02F500F2B480EAB2FB
:101490000C469BF877508BF86E00012303FA06F692
:1014A00029182378013EC9B232400729079243FA2E
:1014B00000F200F2AE80D3B20122AA40013A9BF9B9
:1014C0006B709BF96A408BF86E10134006933D4693
:1014D0009BF868309BF8726003939BF86930029325
:1014E0009BF86C3004935FFA84F9EDB2079FB04625
:1014F0000BE0BC4205F10103A7EB04043FF63CAF4F
:10150000DDB2049BE7B24FF000094FFA89F64FFABB
:1015100085FA31465246C9EB030403984346FFF768
:10152000F5FC43460590524631460298FFF7DCFC35
:101530009BF86F30E4B2002BDBD19BF8713005993A
:10154000CDF80080BC4202468BF8913058462346C5
:1015500028BF3B4600F086FA9BF8683003939BF85F
:10156000693002939BF86C309BF872800493C0E75B
:101570007B190119DBB2C9B26FE7C4F101007B1C12
:1015800038445119C7B2DBB2C9B266E7C4F10100F1
:10159000C5F101057B1C511C7C191044E7B2DBB27C
:1015A000C2B2C9B259E7FFF7B1FC3346074652460B
:1015B00049460298FFF798FC9BF870300096024667
:1015C00039468BF8913058464346013500F04AFAC7
:1015D000C8EB0404EDB29BF869309BF872609BF88D
:1015E00068E00293E4B24FFA85FA00279BF86C801A
:1015F000CEE6DBB20DE74C1CCBF86440C2F108022A
:101600004978D3B201FA03F208382A43C0B2D2B201
:101610003FE7631CCBF86430C0F108036078DBB2AD
:1016200000FA03F308391343C9B2DBB244E70146B9
:101630003B4612E72DE9F84F1C460E4615468246FA
:1016400000F0E0FB013C00274FF6FF784FF6FE79F3
:10165000DAF8043014F8011F504698474045834695
:101660007DD04845F4D09AF87230032B7AD8DFE861
:1016700003F0453D3502DAF8603050469847304473
:10168000C0B22B46DAF85C108AF86800BBF1FF0F95
:101690008AF8693001F117023BD8BBF1600F4ED9CF
:1016A000BAF888301A4403E013785B4555D00244F9
:1016B00050780028F8D19AF87230032B05D8DFE86B
:1016C00003F00A0725022D1AEDB23844C7B2BFE76E
:1016D0000544EDB2F9E70644F6B2F6E7DAF8603011
:1016E00050469847281AC3B23046CBE7DAF8603044
:1016F00050469847301AC0B22B46C3E7DAF860303C
:10170000504698472844C3B23046BBE7361AF6B273
:10171000DBE7BAF88A30D118D05C4B7853EA002066
:10172000C9D0834502D111E093450FD08B7819447D
:1017300008784A7852EA0022F6D11046BBE7BBF19E
:10174000400FB5D9BAF886301A44B1E7033161B118
:101750005046FFF71BFDC0B2ADE7911CF7E73846D6
:10176000BDE8F88F2B4630468CE70846A3E700BF5C
:1017700080F86F10704700BFF8B5054690F872000A
:101780000F4614461E46032808D8DFE800F0504AEA
:1017900044022B6E284698473844C7B2E86D85F856
:1017A0006870FF2E85F8694000F1170217D8602E87
:1017B0002DD8402E84BFB5F88630D218507820B985
:1017C00024E002445078002839D01378B342F8D18D
:1017D000911CD1B12846FFF7D9FCC0B2F8BDB5F8CD
:1017E0008A30D118D05C4C7854EA00200ED0864262
:1017F00002D122E0964220D08B78194408784A78AA
:1018000052EA0022F6D11046F8BD0846F8BDB5F8F8
:1018100088301A44D2E72B6E28469847201AC4B263
:10182000BCE72B6E28469847381AC7B2B6E72B6E2E
:10183000284698472044C4B2B0E70331C9E7F8BD51
:1018400010B4034C44605DF8044BFFF7F3BE00BFD7
:10185000651D0000014B0366704700BF310F00009B
:10186000014B0366704700BF350F0000014B036654
:10187000704700BF410F0000C36D8B426CD02DE953
:10188000F04F024683B0D1650B7880F874304B7806
:1018900080F875308B7880F87630CB7880F87730A8
:1018A0000B7980F878304B7980F879308B7980F833
:1018B0007A30CB7980F87B300B7A80F87C304B7AA9
:1018C00080F87D3091F80AB04FFA8BF780F87E707F
:1018D000CB7A80F87F3091F80C904FFA89F880F835
:1018E000808091F90D6080F8816091F90E5080F848
:1018F000825091F90F3080F8833091F910A080F870
:1019000084A00C46204611210193FFF7E5FA13212C
:10191000A2F886002046FFF7DFFA1521A2F888001A
:101920002046FFF7D9FA92F88C1082F88E5082F890
:101930008D60A2F88A0061B10129019B0DD0474456
:10194000BE42BCBFD94482F88D90A845B8BF82F88A
:101950008E8003B0BDE8F08F70479E42B8BF82F81A
:101960008D305545F5DD82F88EA0F2E7014B4360DE
:10197000FFF7F2BA651D000080F87210704700BFD3
:10198000F0B4012B05460E469DF8107029D0022FA9
:101990001C4690F84D1090F84F3090F84E002FD024
:1019A000032F49D0A2EBC102F907D2B22FD586424C
:1019B00024D21444E4B294424BD2934248D9591EE3
:1019C000CCB2DCB19C4294BFC2EB0404C2EB030472
:1019D000E3B2012104912C6C31462846A446F0BCA8
:1019E000604790F84E408C4208D990F84D4090F8EE
:1019F0004F60A2EBC402D2B296422ED8F0BC704720
:101A00000136361BA2EBC10206F0FF06D2B29A42A3
:101A1000F4D23444E4B2B44216D2864213D2411E08
:101A2000CCB2002CEAD0A04294BFC6EB0004C6EBB7
:101A30000404E3B20021CDE7C900C1F101010A4469
:101A4000121BD2B2B3E700268642EAD3F0BC70473D
:101A500000229A42B5D3F0BC70470497046CA446A8
:101A6000F0BC604730B49DF808400BB930BC7047FB
:101A7000456C02946C68A44630BC604702298ABF5A
:101A8000012380F8911080F89130704770B490F87D
:101A9000586090F857509DF80C4096420CD9A542DA
:101AA0000CD290F8564090F855208C420BD99A42AF
:101AB0000BD2012070BC7047A54201D2A242F0D8DF
:101AC000002070BC70479A42FAD2994294BF00201D
:101AD000012070BC704700BF2DE9F04F90F8915085
:101AE0009DF824C002F007040126A640012DF6B29D
:101AF00040F2CC8000270568D0F848E02D7C02F049
:101B0000F80205FB02110EEB0105BCF1000F40F0DD
:101B10009E806C4204F003049C4228BF1C46052BA7
:101B200098BF1C46002C00F0BA801EF801203A43F2
:101B3000724003F1FF3C012C0EF801205FFA8CF09B
:101B400005F1010200F0A6806A783A437240981EBF
:101B5000022C6A70C0B205F1020200F09B80AA78E4
:101B60003A437240D81E032CAA70C0B205F103029A
:101B700000F09080EA783A437240181F052CEA7012
:101B8000C0B205F1040240F085802A793A437240E0
:101B9000581F9C422A71C0B205F105057DD01B1B60
:101BA000DBB21A1FC4EB0C0CC2F385025FFA8CF88F
:101BB00001324FEA820CB8F1020F5FFA8CFC2CD98B
:101BC0004FF00009C84666F3070867F307090C449D
:101BD00067F30F2966F30F28744467F3174966F318
:101BE000174867F31F6966F31F68A4F1040A4FF0F2
:101BF000000E5AF8041F0EF1010E49EA01015FFAC6
:101C00008EFB88EA01015A4544F8041BF1D8CCEB5D
:101C100000006345C0B2654431D02B78421E3B437F
:101C2000734012F0FF0F2B7029D06B783B43734049
:101C300002286B7037D0AB781F437E40AE70BDE892
:101C4000F08F08BF174601D001263746BBB12A786E
:101C5000611C3A437240013B11F007042A70DBB269
:101C60004FEA47014FEA46020BD190F8912090F8D5
:101C70004E10012A0D44E4D90126002BE7D1BDE81E
:101C8000F08FCFB2D6B2002BE1D1F8E7374608BFCC
:101C9000002630E79C42154681D1BDE8F08F1846FA
:101CA00003F1FF3C7BE7BDE8F08F00BF10B49DF867
:101CB000044001945DF8044BFFF762BEF0B490F865
:101CC0004C50046890F84D70EB00DBB280F84F3058
:101CD000227C1F2A28BF1F22D200F900D2B2C9B22B
:101CE00080F84E2080F85010667C3D44B54202DDFD
:101CF000F31BDB00DBB20B44DBB2F02580F8535062
:101D000080F8523080F85110A58AF02D98BF80F8E5
:101D10005350E48A80F85440002480F8554080F8FD
:101D2000562080F8571080F85830F0BC704700BF3C
:101D3000F8B5069E80F84C200025012780F84D500C
:101D400080F8917080F89270044603648164C565E0
:101D50004664336898472046FFF77CFD84F872504C
:101D6000F8BD00BF11B94FF6FF7070470A29FAD0CD
:101D700088B2704719B94FF6FF71084670470A29B3
:101D8000F9D090F8233053B9FB2919D9052301F074
:101D9000010180F8233081834FF6FE71EDE7828BDD
:101DA00001F03F0141EA8211013BDBB289B24FF6FB
:101DB000FE72818380F82330002B18BF1146DCE7C8
:101DC000F72905D9042301F0030180F82330E2E765
:101DD000EF2905D9032301F0070180F82330DAE762
:101DE000DF2905D9022301F00F0180F82330D2E763
:101DF000BF2905D9012301F01F0180F82330CAE76C
:101E000089B2BAE7002380F82330704710B4046920
:101E10000A46A446002320215DF8044B604700BF1A
:101E200010B404691346A4460A465DF8044B172112
:101E3000604700BF00B583B002AA02F8011D01216E
:101E4000FFF7EEFF03B05DF804FB00BF10B4C468F9
:101E50000A46A446002315215DF8044B604700BFE5
:101E600010B4C4680A46A446002316215DF8044B4A
:101E7000604700BF10B4C4681346A4460A465DF824
:101E8000044B1721604700BF10B4C4680023A44668
:101E90001A4618215DF8044B604700BF10B4C468AF
:101EA0000023A4461A4619215DF8044B604700BF81
:101EB00070B5064682B00D462C78172C13D01DD96C
:101EC0000023192C1A462146304626D9FE2C4FF005
:101ED000290120D16A788DF80720023500F04CF9ED
:101EE0002C78172CEBD16B788DF807300DF10702A9
:101EF000012130460235FFF7BDFFDDE7152C4FF01D
:101F000000032146304606D36A788DF80720F4682E
:101F10000235A047D0E702B070BDF4680135A04794
:101F2000CAE700BF70B50D46143982B004461646A4
:101F300005291CD8DFE801F01203030D121200215D
:101F4000FFF764FF31462046FFF774FF012002B01F
:101F500070BD01210193FFF759FF019B29462569B7
:101F600032462046AC4602B0BDE8704060470020D3
:101F7000EDE700BF01608B7C8377704738B50023A5
:101F800004461A4645692821A84700231A46E568F1
:101F900020461421A847204601224B2100F0ECF8EE
:101FA000236820461A79292100F0E6F8204600220D
:101FB0004B2100F0E1F8236820461A79292100F02E
:101FC000DBF8204601224B2100F0D6F8236820469A
:101FD0005A792921BDE8384000F0CEB830B583B039
:101FE00002AC069D44F8085D8DF805108DF80620BA
:101FF0008DF804308568234601220F21A84703B0DD
:1020000030BD00BF10B484680023A4461A460921DD
:102010005DF8044B604700BF10B484680023A446F9
:102020001A460A215DF8044B604700BF10B484686B
:102030000A46A44600230B215DF8044B604700BF0D
:1020400010B484680A46A44600230D215DF8044BB1
:10205000604700BF10B484680023A4461A461021CC
:102060005DF8044B604700BFF8B5A1F10B070546CA
:1020700014461E46042F04D8DFE807F056033E47F7
:102080001000092956D00A295AD12846FFF776FFB1
:1020900028463349FFF70CFF0120F8BDFFF7F4FE97
:1020A000AB7F777903EBC70707F0FF07402128468E
:1020B000FFF7CCFE390941F010012846FFF7C6FEB4
:1020C00007F00F012846FFF7CBFEB179284641F013
:1020D000B001FFF7C5FE31793268C90001F0F8019F
:1020E0002846FFF7C7FE621E12F0FF04F3D1284610
:1020F000FFF7D4FE0120F8BD4ABB1A49FFF7D8FE0E
:102100002B689B7CAB770120F8BDFFF7BDFE8121DA
:102110002846FFF79BFE21462846FFF7A1FE2846EA
:10212000FFF7BCFE0120F8BD62B90F49FFF7C0FE02
:102130000120F8BD28460D49FFF71CFF0120F8BD1E
:102140000020F8BD0A49FFF7B3FE0120F8BD094998
:10215000FFF7AEFE2B68DB7CAB770120F8BD00BF3C
:1021600044EF00003CEF00002CEF000014EF0000F3
:1021700034EF00007CEF000010B444690023A44653
:102180005DF8044B604700BFF0B40025FF270560F1
:10219000C57780F8225080F8235080F820704FF0E7
:1021A000FF3580F82570049FC0F82950C0F82D50E5
:1021B000C0F83150C0F83550C0F83950A0F83D5043
:1021C00047618160C2600361F0BCFFF71BBF00BFC5
:1021D000704700BFF0B505ACF0CC4FF0000CDDF857
:1021E00024E080F820C080E80E00C46005614661EC
:1021F0008761C0F81CE001B3012180F82010E2B132
:10220000022280F82020C3B1032380F82030A4B13B
:10221000042380F8203085B1052380F8203066B192
:10222000062380F8203047B1072380F82030BEF124
:10223000000F02D0082380F82030F0BD0B0618D420
:1022400090F820200B099A4213D901F00F010A4A95
:1022500050F82330525C03EB121102F00F028B7D19
:10226000087C134103F0010383F00103104118407F
:1022700070470020704700BF94EF00000B0618D491
:1022800090F820200B099A4213D901F00F01094A56
:1022900050F82300535C10B41C11012130F81420B5
:1022A00003F00F0301FA03F3134320F814305DF831
:1022B000044B704784EF00000B0619D490F82020DF
:1022C0000B099A4214D901F00F010A4A50F8230071
:1022D000535C10B41C11012130F8142003F00F03DB
:1022E00001FA03F322EA030320F814305DF8044BEB
:1022F000704700BF84EF000090F820202AB30F2918
:1023000028BF0F212DE9F041804641F0E00700246D
:102310000E4D58F824300126394628467BB11B7FE4
:1023200085F85E60B34085F83B3085F85D6000F06D
:1023300031FB3146284600F08BFB98F82020013411
:10234000E4B29442E4D3BDE8F0817047D00DFF1FA2
:102350002DE9F84390F8203063B3174F80460026EC
:102360004FF0010958F8265005B32B7F124887F823
:102370005E905B00002187F83B3087F85D9000F0AD
:1023800009FBAC1E0E3534F8021F0B48C9B200F031
:1023900001FB21880848090A00F0FCFAAC42F2D19E
:1023A0000121054800F054FB98F820300136F6B2C0
:1023B0009E42D7D3BDE8F883D00DFF1F2DE9F04131
:1023C00082B000259DF824409DF828609DF82C706F
:1023D00064F30705002461F3070466F30F259DF8F5
:1023E00020109DF8306062F30F2463F3174467F305
:1023F000174590F8203066F31F6561F31F648DE880
:102400003000002B55D02C4C80460025012658F872
:102410002570294802AA2A44002F46D012F8083C09
:102420003B7700F0CBFA3B7F234884F85E605B008B
:10243000212184F83B3084F85D6000F0ABFA012183
:102440001D4800F005FB3B7F1B4884F85E605B0085
:10245000812184F83B3084F85D6000F09BFA012113
:10246000154800F0F5FA3B7F134884F85E605B0086
:10247000EF2184F83B3084F85D6000F08BFA012195
:102480000D4800F0E5FA3B7F0B4884F85E605B0086
:10249000A12184F83B3084F85D6000F07BFA0121D3
:1024A000054800F0D5FA98F820300135EDB29D428C
:1024B000ADD302B0BDE8F081D00DFF1F90F8202011
:1024C000002A00F0CE802DE9F843674E002507462C
:1024D000B14628464FF0010804E00135EDB29542BF
:1024E00080F08B8057F82540002CF6D00028F4D1DE
:1024F0002246237F52F8101FC4F816109288628378
:102500005B004021584886F83B3086F85E8086F8AC
:102510005D8000F03FFA0121534800F099FA012351
:102520000622217F504800F02DFB96F8383096F8AF
:1025300039209A4263D909EB03020133127E89F8EC
:102540003830227496F8383096F839209A425ED99D
:10255000F2180133127E86F83830627496F83830FB
:1025600096F839209A425AD9F2180133127E86F829
:102570003830A27496F8383096F839209A4256D9F5
:10258000F2180133127E86F83830E27496F838304B
:1025900096F839209A4252D9F2180133127E86F801
:1025A0003830227596F8383096F839209A424ED94C
:1025B000F218013386F83830107E237CA27D6075D6
:1025C0009A424AD1E27D637C9A4246D1227EA37C24
:1025D0009A4242D1627EE37C9A423ED1A27E237D22
:1025E0009A423AD1E37E97F820200135181AEDB2CD
:1025F00018BF01209542FFF475AFBDE8F883FF22B4
:10260000227496F8383096F839209A42A0D8FF22E2
:10261000627496F8383096F839209A42A4D8FF228E
:10262000A27496F8383096F839209A42A8D8FF223A
:10263000E27496F8383096F839209A42ACD8FF22E6
:10264000227596F8383096F839209A42B0D8A27D93
:10265000237CFF209A426075B4D097F82020012097
:102660003BE71046704700BFD00DFF1F00220A2134
:10267000818002608271C271704700BF10B504464C
:102680000023C8B282B0E071A37103F0BBFA08B1B5
:102690000323A371034B1B680193019B236002B0CA
:1026A00010BD00BFA028FF1F81807047F0B5044611
:1026B00085B0C07903F0A6FAA279003018BF0120D6
:1026C000C2F3400102F0F7038842A3710BD0124A13
:1026D0001268019283F00203019AA3712260C3F38E
:1026E000C00005B0F0BD0C4D276829680291029921
:1026F000A688C91BB142F2D302F001029042EED08B
:102700002A68039283F00903039AA371C3F3C000FC
:10271000226005B0F0BD00BFA028FF1F807900F047
:102720000100704710B4047F4160022CC26003D0E6
:102730005DF8044B04F08ABB83685DF8044B1847CE
:10274000F0B4464B464A986B5C6B01791170454971
:1027500022790A701A6B00790870002A46D05968ED
:10276000C9688A423ED82168CC8B240402F1FF302C
:1027700065D4C0F30E00C883C88B80B2C882996B41
:102780000968C88B000452D4C2F30E00C883C88BFA
:10279000002480B212F1FF32C88218BF01221C63EC
:1027A000596B2E4809680D6800F12C04A54236D0FB
:1027B0000068C46814F0804F0C680D6815BF248849
:1027C00024780235013544F000440D604463996B70
:1027D000254B09791970214912B14A6B12791A7087
:1027E000F0BC7047521A1A630122D9E7D86B1968F6
:1027F00005681E4C0A63CC62CC682D681C4E24F020
:1028000080440327B542CC6083F82D701FD1037F2D
:102810004260022BC2601ED0F0BC04F017BB0168FE
:1028200090F82C00CC6840F000404863CFE7CC8B98
:10283000C2F3080004F47E442043C883A7E7CC8B8E
:10284000C0F3080004F47E442043C88394E72B4679
:102850001146F0BC18478368F0BC1847200DFF1FD5
:102860001F8000401C8000401B80004000000FFFC4
:102870002527000090E80C00F0B41C685968256812
:10288000164F174E29432160164D17491760D66021
:1028900015611160417A154A5C180C3194F82C408E
:1028A00053F8215002EBC40149680D60017A5C18AD
:1028B00003EB8101247ECD6902EBC40149680D6000
:1028C000817A581803EB810390F84000596C02EBB1
:1028D000C002F0BC53681960704700BF01401F0080
:1028E000011000380110007800001F8020F7000060
:1028F000704700BF044A1368190644BF03F07F0302
:102900001360024B1B68184700800B40600DFF1FCF
:1029100090F8392090F83800101A704790F8383045
:1029200090F839209A4205D95A1C034480F838207F
:10293000187E70474FF0FF30704700BF90F8383076
:1029400090F839209A4286BF1B18187E4FF0FF304E
:10295000704700BF704700BF38B50546B0F85E004D
:1029600090B195F85D301446C3F1210294420CD821
:1029700005F13B001844224602F048FC95F85D3012
:10298000234485F85D30204638BD01201446287167
:10299000EEE700BFB0F85E306BB190F85D30202BF1
:1029A00007D8C218013380F85D30012082F83B104F
:1029B0007047012303710020704700BF0023426964
:1029C00080F8383080F8393080F85C3080F85D303D
:1029D00080F85E3080F85F3006CA30B40D68046954
:1029E00043662A4383660A60A370426990F86130A7
:1029F0001649146813441D7A5B7B01EBC5051B0265
:102A00006D6803F4E06343F064032B6090F8623078
:102A100013449D7CDB7D01EBC5011B02496803F477
:102A2000E06343F064030B6021685368194205D0EA
:102A300003692C225A70036904229A7103692022C7
:102A40005A71036980229A7030BC704720F70000E9
:102A5000F0B503691222DA70026993780546980688
:102A600087B051D5B423464C937023680293029EDD
:102A70002A6905E023680393039B9B1B042B5AD808
:102A8000D37803F0200303F0FF00002BF2D095F879
:102A90005D30002B31D04FF0000E4FF0020C05EBF3
:102AA0000E0393F83B30137123680493049F286945
:102AB00007E09B060DD523680593059BDB1B052BC3
:102AC00040D8C378DBB203F0020202F0FF06002A0E
:102AD000EFD080F803C02E69F378DBB2DF06324610
:102AE0003FD49F063DD5DB0743D40EF1010E95F888
:102AF0005D305FFA8EFE7345D1D80020002934D1B5
:102B0000002385F85E301BE01D4C23680093009E77
:102B100005E023680193019B9B1B0F2B19D8D378E9
:102B200003F0200303F0FF00002BF2D1B02385F85F
:102B30005F00937099E790702B6980229A7004204F
:102B400007B0F0BD86702B69802204209A7007B010
:102B5000F0BD002393702B69802204209A7007B087
:102B6000F0BD8023B3700420C8E72E698023B370C2
:102B7000C6E7BEF1000F0CBF02200320F6E700BF3E
:102B8000A028FF1F2DE9F0410646122534690020D8
:102B900086F8380086F83900E5703769BC7804F0AB
:102BA00020048AB0002C3CD0B420724DB870286844
:102BB0000290DDF808E0376906E02C680394039C76
:102BC000CEEB0404042C47D8FC7804F0200404F075
:102BD000FF00002CF1D0490041F00101C9B2397168
:102BE00029680491049F346905E0296805910599D5
:102BF000C91B05293FD8E17801F0020101F0FF006F
:102C00000029F2D00227E7703169C87810F011006E
:102C100038D1002A3AD1002B0CBFA02380238B701F
:102C20001EE0544D04F0FF002C680094DDF800C055
:102C300006E02C680194019CCCEB04040F2C12D804
:102C4000FC7804F0200404F0FF0E002CF1D1B02039
:102C500086F85FE0B870AAE7B870336980229A708E
:102C60000AB0BDE8F0810023BB70336980229A70FE
:102C70000AB0BDE8F081A070336980229A700AB072
:102C8000BDE8F08180238B700020E9E7012A5AD04B
:102C9000A0248C703469217986464FF0A80C2968ED
:102CA0000691069805E0296807910799091A0529F0
:102CB0004FD8E17801F0020101F0FF080029F2D0BD
:102CC000013AD2B2E770012A04BF316981F802C02B
:102CD000BEF11F0F346945D806EB0E012079087646
:102CE0000EF1010E5FFA8EFE2146012AD7D12A6825
:102CF0000892089C05E02A680992099A121B052A85
:102D000033D8CA7802F0020202F0FF00002AF2D0A3
:102D10000222CA703269B0219170BEF11F0F326970
:102D200025D806EB0E01107908760EF1010E5FFA38
:102D30008EFE00BF00BF00BF0BB18023937086F8EA
:102D400039E070468CE7A8228A70316986460A7994
:102D5000CDE784F80280336980229A70704686F845
:102D600039E07DE721792146BFE78870F3E71179E3
:102D7000DFE700BFA028FF1F38B54B4D2A69D47884
:102D8000E4B2E10625D51023D370630620D504F004
:102D9000040404F0FF03002C5DD044496A6E424CE9
:102DA00000230B7085F85D30002A68D0904794F8B6
:102DB0005D30002B63D02B69D0229A702B6995F877
:102DC0003B201A712B69012285F85C200222DA70FF
:102DD00038BD04F0400303F0FF00002BD7D19379F6
:102DE000DBB203F06001602950D0937803F0100348
:102DF00003F0FF01BBB114F0010439D195F85C3048
:102E000095F85D00284998424CD9C818013390F8CC
:102E10003B0081F85C3010712B69D0229A702B69CD
:102E20000222DA70D4E785F8601093791E4843F0E7
:102E3000200393712B6995F839101A791F29D2B2A2
:102E4000C4D81A4C2478002CC0D044180131227602
:102E500080F83910BAE72A6985F83930C0239370B1
:102E60002B69124A1979012111700222DA70AFE739
:102E7000C02393702B691A790222DA70A8E7012225
:102E8000002385F85D2085F83B3094E703F0DF03ED
:102E90009371AB6E23B185F8380095F839009847E7
:102EA0002A69A2E71471B7E7D00DFF1F9F28FF1F03
:102EB00038B54B4D2A69D478E4B2E10625D5102304
:102EC000D370630620D504F0040404F0FF03002C43
:102ED0005DD044496A6E424C00230B7085F85D302A
:102EE000002A68D0904794F85D30002B63D02B699E
:102EF000D0229A702B6995F83B201A712B69012218
:102F000085F85C200222DA7038BD04F0400303F03B
:102F1000FF00002BD7D19379DBB203F06001602969
:102F200050D0937803F0100303F0FF01BBB114F00D
:102F3000010439D195F85C3095F85D002849984234
:102F40004CD9C818013390F83B0081F85C301071FF
:102F50002B69D0229A702B690222DA70D4E785F8A7
:102F6000601093791E4843F0200393712B6995F804
:102F700039101A791F29D2B2C4D81A4C2478002CDF
:102F8000C0D044180131227680F83910BAE72A6996
:102F900085F83930C02393702B69124A19790121C1
:102FA00011700222DA70AFE7C02393702B691A798F
:102FB0000222DA70A8E70122002385F85D2085F857
:102FC0003B3094E703F0DF039371AB6E23B185F8D8
:102FD000380095F8390098472A69A2E71471B7E7D5
:102FE0003C0EFF1F9F28FF1F38B54B4D2A69D47830
:102FF000E4B2E10625D51023D370630620D504F092
:10300000040404F0FF03002C5DD044496A6E424C76
:1030100000230B7085F85D30002A68D0904794F843
:103020005D30002B63D02B69D0229A702B6995F804
:103030003B201A712B69012285F85C200222DA708C
:1030400038BD04F0400303F0FF00002BD7D1937983
:10305000DBB203F06001602950D0937803F01003D5
:1030600003F0FF01BBB114F0010439D195F85C30D5
:1030700095F85D00284998424CD9C818013390F85A
:103080003B0081F85C3010712B69D0229A702B695B
:103090000222DA70D4E785F8601093791E4843F075
:1030A000200393712B6995F839101A791F29D2B230
:1030B000C4D81A4C2478002CC0D044180131227690
:1030C00080F83910BAE72A6985F83930C02393703F
:1030D0002B69124A1979012111700222DA70AFE7C7
:1030E000C02393702B691A790222DA70A8E70122B3
:1030F000002385F85D2085F83B3094E703F0DF037B
:103100009371AB6E23B185F8380095F83900984774
:103110002A69A2E71471B7E7640DFF1F9F28FF1FFC
:10312000F8B50446002500F1080630462580A57054
:10313000E57025710F46FFF799FA0123237429469C
:10314000F8B2278002F06CFD30462188FFF796FA2E
:1031500030460521FFF7A8FA2046F8BD704700BFAA
:1031600038B500F1080504462846FFF79FFA2846BF
:10317000FFF7D4FA237C4BB180B90123E37080F0D0
:103180000102034623712074A27038BDE37080F001
:103190000102034623712074A27038BD002380F021
:1031A0000102E37023712074A27038BD38B500238A
:1031B000044643608360C360036180ED000A0F2111
:1031C0001448154D03F0ECFC206805F0A9F841EC1B
:1031D000100B0221284604F0BFF8284604F03CF802
:1031E00010210E4803F0DCFCD4ED007A9FED0C7A40
:1031F000DFED0C6A67EE877A284686EEA77AFDEE49
:10320000C77A17EE901A03F0ADFF284604F024F8B1
:10321000204638BD48F100006810FF1F58F100003B
:103220000000C042C0E1644C704700BF38B542683E
:10323000C5688260551B012D08D90C4BA3FB0213F6
:103240009B0903EB4303B2EB431400D038BD0521C7
:10325000074803F0A5FC234629460A22054804F046
:103260001DF80448BDE8384003F0F6BFABAAAAAA8F
:103270006CF100006810FF1FC368826893423CBF76
:103280000133C360704700BF38B5044600F108053C
:10329000D4F89C30284698474FF6FD7398420CD8D6
:1032A000034694F8A12094F8A0102846FEF764FA8B
:1032B00094F8A030184484F8A000012038BD00BF65
:1032C0002DE9F04F00F1180A83B0074650460191EE
:1032D000FDF77CFD50463349FEF7CEFA5046FEF727
:1032E000C5FA07F1100900264FF6FD7BC6F3CF03A0
:1032F000DC00A5B2751B1C4403EB4404ED0005354E
:103300006400EDB2E4B206F10108414687F8B1501D
:1033100087F8B040484603F025FF04F10C0387F816
:10332000B03087F8B150D7F8AC303A2150469847C2
:10333000584507D8034697F8B12097F8B010504683
:10334000FEF71AFABB6887F8B150742202FB063602
:10335000123487F8B040318A48460131464603F0BE
:1033600001FF102EC2D150460F49FEF785FA019C8D
:103370000E492346A1FB0331090950221E2301EB0C
:10338000410187F8B02087F8B1304846A4EBC1016D
:1033900000230A2203F082FF504603B0BDE8F04F3D
:1033A000FDF720BDCCB70000C09D0000ABAAAAAAC3
:1033B0002DE9F04715469AB304460F46DFF86490AE
:1033C000002600F108084FF6FD7A03E00120013DD8
:1033D00006441ED0236817F8012B1B684B45114685
:1033E000404619D1D4F89C3098475045EED8034652
:1033F00094F8A12094F8A0104046FEF7BDF994F887
:10340000A030184484F8A000013D4FF001000644AC
:10341000E0D13046BDE8F087114620469847D6E710
:103420001646F6E78932000070B50446022304F11F
:1034300018051349134A23700326002304206080D3
:103440002161C4F8AC202846A380A360E360237503
:1034500084F8B03084F8B1306670FEF7D3FC0A4BC4
:1034600023612846094B0A4A0A49FDF717FD2846F9
:10347000272326222521FDF79FFB204670BD00BF94
:103480007CF10000651D000094F10000A50800001B
:10349000A50900000CEF0000704700BF2DE9F04FB8
:1034A00000F118058DB004469549964F964E284672
:1034B0009046FEF75BFABA68FB687968B7F810E0E7
:1034C00000F1010B386807AF0FC72846A7F800E0E6
:1034D000FDF77CFC28460121FEF7D0FA28468B49EF
:1034E000FEF7CAF92846FEF7C1F900223C231FFA6D
:1034F0008BFB84F8B02084F8B13004F1100906F198
:10350000040A4FF6FD77D4F8AC3016F8011B2846B4
:103510009847B8420CD8034694F8B12094F8B010FC
:103520002846FEF729F994F8B030184484F8B00022
:103530005645E8D11E233C2784F8B03084F8B1709A
:1035400008F101014846724E03F00CFE302384F866
:10355000B17006F1040A84F8B0304FF6FD77D4F864
:10356000AC3016F8011B28469847B8420CD80346E1
:1035700094F8B12094F8B0102846FEF7FDF894F8BE
:10358000B030184484F8B0005645E8D13C22E368D6
:1035900084F8B120502184F8B010186804F0C0FEFF
:1035A00041EC100B0221484603F0D6FE594928464B
:1035B000FEF762F92846FEF753F900212846FEF788
:1035C000D7F800212846FDF7FFFA7423A26803FB11
:1035D00008F802EB08035FFA8BF11B8A049103934E
:1035E000CDF81480FD270026A346414626E0BAF117
:1035F000000F4BD0B9F1640F69D0B9F1130F4DD959
:10360000B9F1230F5BD9B9F1330F68D9B9F1430F81
:103610006DD9B9F1530F94BF42F2846342F28563CE
:10362000022239462846FEF7A7F8049B01361F44BC
:10363000082EFFB23AD0DBF80820059906EB4603C6
:1036400001EB83031A44039B547D92F814A0B2F853
:103650001C90B3420CBF00210121284607F103084A
:10366000FEF70CFA5FFA88F807AA0923019241468F
:1036700000930A222846FDF7ABFA002CB7D1224668
:10368000414678232846FEF777F8CEE7414642F2D6
:10369000CB5302222846FEF76FF8C6E74FF41A53C1
:1036A000022239462846FEF767F8BEE72846FEF7AD
:1036B000D1F82846FDF796FB0DB0BDE8F08F42F239
:1036C0008163022239462846FEF756F8ADE74146A7
:1036D00042F2CF5302222846FEF74EF8A5E742F207
:1036E0008263022239462846FEF746F89DE742F2F9
:1036F0008363022239462846FEF73EF895E700BF6D
:10370000C8F50000A4F10000B8F50000D89300004F
:10371000C0F5000048C0000038B50E21054613482A
:1037200005F1180403F03CFA114803F095FD20461A
:10373000FEF772FC2046FDF7A1FB20460021FEF7B4
:1037400075FC20460021FEF77BFC0A4BC5F8AC3027
:1037500020460021FEF710F920460121FEF708F867
:1037600020460221BDE83840FEF788B9CCF50000BC
:103770006810FF1F751D000070B500F1180482B0BD
:1037800020460E464025FDF721FB00220F4B0193FA
:103790001146802320460095FDF71AFA20460C4971
:1037A000FEF76AF820460121FEF768F92A46094B20
:1037B0005F212046FEF744F82046FDF713FB304614
:1037C00002B0BDE8704002F067BA00BFB8F1000077
:1037D00024E30000DCF500000378032B1ED02DE964
:1037E000F04F054685B0002B00F0E481022B00F07D
:1037F0007F82012B16D0002300F1180480F8B0302E
:1038000080F8B1302046FEF7FDFA2046FDF736FB82
:10381000204605B0BDE8F04FFDF7D8BA0B0700F021
:10382000708170478368D54FB3F84437029300F135
:1038300018069B089B0030460393FDF7C7FA3046F5
:10384000CF49FEF719F83046CE49FEF715F8304655
:10385000FEF70CF800223C233C1D85F8B02085F8CB
:10386000B13005F110084FF6FD79D5F8AC3017F8F6
:10387000011B3046984748450CD8034695F8B120BF
:1038800095F8B0103046FDF777FF95F8B030184442
:1038900085F8B000A742E8D11E2385F8B030029B1E
:1038A000B94F3C2485F8B140591C404603F05AFCFE
:1038B000302385F8B14085F8B0303C1D4FF6FD79D6
:1038C000D5F8AC3017F8011B3046984748450CD85E
:1038D000034695F8B12095F8B0103046FDF74CFF3F
:1038E00095F8B030184485F8B000A742E8D13C22E2
:1038F000EB6885F8B120502185F8B010186804F005
:103900000FFD41EC100B4046022103F025FD052779
:103910004FF007084FF0000BA946039B0BEB030485
:10392000029B04F00F04A34200F04C814FF0740A94
:10393000D9F808300AFB04FA03EB0A02517D158A14
:1039400079B1002D00F05381137D002B40F02881C8
:1039500001230093424611213046FDF7A5F9D9F81D
:1039600008304FF0740A0AFB04FA03EB0A0292F8DB
:10397000211081B1012D00F0828192F82030002BBE
:1039800040F004810123009342461F213046FDF799
:103990008BF9D9F808304FF0740A0AFB04FA03EBEC
:1039A0000A0292F82D209AB1022D00F0568174225D
:1039B00002FB043393F82C30002B40F0D480012319
:1039C000009342462D213046FDF76EF9D9F80830B4
:1039D0004FF0740A0AFB04FA03EB0A0292F839204A
:1039E0009AB1032D00F05D81742202FB043393F839
:1039F0003830002B40F0A3800123009342463B2146
:103A00003046FDF751F9D9F808304FF0740A0AFB37
:103A100004FA03EB0A0292F845209AB1042D00F053
:103A20005281742202FB043393F84430002B40F09F
:103A3000908001230093424649213046FDF734F936
:103A4000D9F808304FF0740A0AFB04FA03EB0A02B3
:103A500092F8512092B1052D00F0ED80742202FB06
:103A6000043393F85030002B5FD10123009342467A
:103A700057213046FDF718F9D9F808304FF0740A8D
:103A80000AFB04FA03EB0A0292F85D208AB1062DC4
:103A900000F0BF80742202FB043393F85C30D3BB88
:103AA00001230093424665213046FDF7FDF8D9F821
:103AB0000830742202FB043292F869207AB1072D93
:103AC00000F08D80742202FB043494F86830D3B97E
:103AD00001230093424673213046FDF7E5F80BF1D0
:103AE000010B08F10E080E37BBF1040F5FFA88F8DE
:103AF000FFB27FF412AF304605B0BDE8F04FFDF7DE
:103B000071B9FFF7DDBB052300933A4671213046BA
:103B1000FDF7CAF8E3E7052300933A4663213046F0
:103B2000FDF7C2F8D9F80830C3E7052300933A46F9
:103B300055213046FDF7B8F8D9F808309EE705233F
:103B400000933A4639213046FDF7AEF8D9F80830EF
:103B50005BE7052300933A4647213046FDF7A4F87A
:103B6000D9F808306EE7052300933A462B213046FA
:103B7000FDF79AF8D9F808302AE700BFB8F5000039
:103B800048C00000D8930000C0F500000523009352
:103B90003A461D213046FDF787F8D9F80830FAE695
:103BA000052300933A460F213046FDF77DF8D9F8FA
:103BB0000830D6E68368B3F8442705B0BDE8F04F77
:103BC000FFF76CBC30464949FDF756FEFA1CD2B2ED
:103BD00042F2921302213046FDF7CEFDA6E6052300
:103BE00000933A4671213046FDF786F877E70523C2
:103BF00000933A460F213046FDF77EF8D9F8083099
:103C00009A449AF82120002A00F05F829AF8203026
:103C1000B5E6052300933A4663213046FDF76CF87C
:103C2000D9F808309A449AF86930002B3FF457AF1E
:103C30009AF868304BE72B463A46009555213046B6
:103C4000FDF75AF8D9F808309A449AF85D20002A0E
:103C500000F035829AF85C3021E7052300933A465C
:103C60002B213046FDF748F8D9F808309A449AF8E5
:103C70003920002A00F01D829AF83830B9E6052371
:103C800000933A461D213046FDF736F8D9F8083042
:103C90009A449AF82D20002A00F005829AF82C30D8
:103CA0008AE6052300933A4639213046FDF724F889
:103CB000D9F808309A449AF84520002A00F0ED819E
:103CC0009AF84430B2E6052300933A46472130463D
:103CD000FDF712F8D9F808309A449AF85120002AD2
:103CE00000F0D5819AF85030BDE600BF48C0000012
:103CF0008368D24FB3F84437029300F11806DB080B
:103D0000DB0030460393FDF761F83046CC49FDF700
:103D1000B3FD3046CB49FDF7AFFD3046FDF7A6FDBC
:103D200000223C233C1D85F8B02085F8B13005F118
:103D300010084FF6FD79D5F8AC3017F8011B304666
:103D4000984748450CD8034695F8B12095F8B0102F
:103D50003046FDF711FD95F8B030184485F8B000F5
:103D6000A742E8D11E2385F8B030029BB64F3C2411
:103D700085F8B140591C404603F0F4F9302385F82A
:103D8000B14085F8B0303C1D4FF6FD79D5F8AC3028
:103D900017F8011B3046984748450CD8034695F85C
:103DA000B12095F8B0103046FDF7E6FC95F8B0303C
:103DB000184485F8B000A742E8D13C22EB6885F8AA
:103DC000B120502185F8B010186804F0A9FA41EC30
:103DD000100B4046022103F0BFFA01274FF0030801
:103DE0004FF0000BA946039B03EB0B04029B04F06E
:103DF0000F04A34200F03E814FF0740AD9F8083056
:103E00000AFB04FA03EB0A02517D158A79B1002DF1
:103E100000F0CE81137D002B40F0DE800123009363
:103E2000424611213046FCF73FFFD9F808304FF0E9
:103E3000740A0AFB04FA03EB0A0292F8211081B11A
:103E4000012D00F0958192F82030002B40F0CE80BB
:103E50000123009342461F213046FCF725FFD9F885
:103E600008304FF0740A0AFB04FA03EB0A0292F8D6
:103E70002D209AB1022D00F08B81742202FB0433B5
:103E800093F82C30002B40F0BB8001230093424676
:103E90002D213046FCF708FFD9F808304FF0740A9E
:103EA0000AFB04FA03EB0A0292F839209AB1032DB7
:103EB00000F04D81742202FB043393F83830002B5C
:103EC00040F0A8800123009342463B213046FCF796
:103ED000EBFED9F808304FF0740A0AFB04FA03EB42
:103EE0000A0292F845209AB1042D00F01F81742235
:103EF00002FB043393F84430002B40F095800123FB
:103F00000093424649213046FCF7CEFED9F80830EE
:103F10004FF0740A0AFB04FA03EB0A0292F85120EC
:103F20009AB1052D00F0F180742202FB043393F85E
:103F30005030002B40F08A800123009342465721E5
:103F40003046FCF7B1FED9F808304FF0740A0AFB8E
:103F500004FA03EB0A0292F85D2092B1062D00F0FC
:103F6000C280742202FB043393F85C30002B77D1BB
:103F700001230093424665213046FCF795FED9F8AF
:103F80000830742202FB043292F869207AB1072DBE
:103F900000F0A180742202FB043494F868309BB9CD
:103FA00001230093424673213046FCF77DFE0BF15E
:103FB000010B08F107080737BBF1080F5FFA88F813
:103FC000FFB27FF410AF96E5052300933A467121C6
:103FD0003046FCF769FEEAE7052300933A460F21D5
:103FE0003046FCF761FED9F8083020E7052300933E
:103FF0003A461D213046FCF757FED9F8083030E725
:10400000052300933A462B213046FCF74DFED9F8A4
:10401000083043E7052300933A4639213046FCF740
:1040200043FED9F8083056E7052300933A46472166
:104030003046FCF739FED9F8083069E7B8F50000DA
:1040400048C00000D8930000C0F50000052300938D
:104050003A4655213046FCF727FED9F8083074E778
:10406000052300933A4663213046FCF71DFED9F83C
:10407000083086E730466849FDF7FEFBFA1CD2B2ED
:1040800042F2921302213046FDF776FBB4E69AF82D
:104090005D20002A3FF40DADFCE49AF85120002A7F
:1040A0003FF4ECACDAE49AF83920002A3FF4ADACE6
:1040B0009AE49AF84520002A3FF4C4ACB1E49AF897
:1040C0006920002A3FF40BADFCE49AF82D20002A69
:1040D0003FF47EAC6BE4052300933A4671213046F1
:1040E000FCF70AFE63E7052300933A466321304656
:1040F000FCF702FED9F808309A449AF86930002B90
:104100003FF455AF9AF8683049E72B463A46009598
:1041100055213046FCF7F0FDD9F808309A449AF85A
:104120005D20002A54D09AF85C301FE705230093E5
:104130003A4647213046FCF7DFFDD9F808309A446B
:104140009AF85120002A4FD09AF85030F1E6052312
:1041500000933A4639213046FCF7CEFDD9F80830B5
:104160009A449AF84520002A4AD09AF84430C3E687
:10417000052300933A461D213046FCF7BDFDD9F8D2
:1041800008309A449AF82D20A2B39AF82C3079E698
:10419000052300933A462B213046FCF7ADFDD9F8B4
:1041A00008309A449AF8392082B39AF8383086E673
:1041B000052300933A460F213046FCF79DFDD9F8C0
:1041C00008309A449AF8212042B19AF820303CE60F
:1041D0009AF86920002A7FF4DDAEE8E69AF82D20EF
:1041E000002A7FF44AAE59E69AF85D20002A7FF44F
:1041F000B8AEC6E69AF83920002A7FF45BAE6AE6CC
:104200009AF85120002A7FF48FAE9EE69AF8452056
:10421000002A7FF46CAE7BE648C00000214B10B44E
:104220005A6D1368506819780478507A137A0442EA
:1042300001EA03011BD0937A03F0030309B143F0B1
:10424000040343F008039910013B91720D2B0BD826
:10425000DFE803F021071B070A152121150A071BB8
:104260000721D368013BD3605DF8044B7047937A14
:1042700003F003030029E6D043F00403E3E7D36827
:104280005DF8044B023BD3607047D3685DF8044B84
:104290000233D3607047D3685DF8044B0133D360B9
:1042A000704700BF9C27FF1F214B10B49A6D136805
:1042B000506819780478507A137A044201EA0301AD
:1042C0001BD0937A03F0030309B143F0040343F0D6
:1042D00008039910013B91720D2B0BD8DFE803F016
:1042E00021071B070A152121150A071B0721D3687F
:1042F000013BD3605DF8044B7047937A03F00303EE
:104300000029E6D043F00403E3E7D3685DF8044BEB
:10431000023BD3607047D3685DF8044B0233D3602F
:104320007047D3685DF8044B0133D360704700BF1A
:104330009C27FF1F2DE9F0410446002500F13407BA
:1043400086B004F15208384625606560A560E560D6
:104350002563FDF73DFF04F170064046FDF738FF89
:1043600042462B46394604950395029501950095E2
:104370003046FDF72FFF04F194000921FEF7D0FE2F
:1043800004F1A800072100F00BFD04F1AC000A21A4
:10439000FEF7C6FE04F1C000082100F001FD04F1A3
:1043A000C4000621FEF7BCFE0221152001F038FCF6
:1043B0000221162001F034FC344A354BD2F8A81003
:1043C000012001F5007784F8E000C4F8D870D2F835
:1043D000B02084F8E10002F50070C4F8E450C4F89D
:1043E000DC00013BFDD191F8003292F80022294D0A
:1043F0002949D20703F0010344BF43F00203DBB2B3
:1044000084F8E230012704F1D80804221520C5F809
:10441000548001F011F884F8E87004221F49C5F8AF
:104420005880162001F008F894F8E8303B4484F8EE
:10443000E8304FF0770C4FF0760E002504227520FF
:104440007421732384F8F02084F8F120C4F8EC5030
:104450007022CDF810C0CDF80CE0029001910093CD
:10446000304672237121FDF7A9FF39463046FDF72A
:1044700043FF2946202204F1100004F06FFD30466E
:10448000FDF766FF204606B0BDE8F08120F700008A
:10449000C0D401009C27FF1F1D420000A94200005C
:1044A00010B50446C430FEF759FE04F1C00000F018
:1044B00087FC04F1AC00FEF751FE04F1A80000F007
:1044C0007FFC04F19400FEF749FE204610BD00BFBA
:1044D000F0B5C14A4468C568B4F84417A2FB056248
:1044E0007423120903FB0143C2EB0212A5EB420243
:1044F0001E7DB3F818E09F8B06740E2A8CBF002631
:104500000126012A8CBF00230123BEF1030F00F016
:104510002181BEF1040F00F05C81BEF1020F0CBFDF
:104520001A460022032F027600F01981042F00F0B2
:104530004E81022F0CBF1F460027742202FB01424E
:1045400080F82070577D80F82870978C92F820E0D2
:10455000128D80F811E0032F00F03781042F00F056
:104560003281022F0CBF1F460027032A477600F036
:104570002881042A00F02381022A0CBF1F4600274D
:10458000742202FB014280F8217092F8217080F8B9
:104590002970178E92F82CE0928E80F812E0032F8B
:1045A00000F00B81042F00F00681022F0CBF1F4684
:1045B0000027032A877600F0FC80042A00F0F780A9
:1045C000022A0CBF1F460027742202FB014280F81A
:1045D000227092F82D7080F82A70978F92F838E048
:1045E000B2F8402080F813E0032F00F0DE80042FA3
:1045F00000F0D980022F0CBF1F460027032AC77680
:1046000000F0CF80042A00F0CA80022A0CBF1F46A7
:104610000027742202FB014280F8237092F839705F
:1046200080F82B70B2F8487092F844E0B2F84C2051
:1046300080F814E0032F00F0B080042F00F0AB806E
:10464000022F0CBF1F460027032A077700F0A18026
:10465000042A00F09C80022A0CBF1F460027742207
:1046600002FB014280F8247092F8457080F82C70AB
:10467000B2F8547092F850E0B2F8582080F815E083
:10468000032F00F08280042F7DD0022F0CBF1F4625
:104690000027032A477774D0042A70D0022A0CBF5F
:1046A0001F460027742202FB014280F8257092F811
:1046B000517080F82D70B2F8607092F85CE0B2F83A
:1046C000642080F816E0032F57D0042F53D0022F18
:1046D0000CBF1F460027032A87774AD0042A46D0FA
:1046E000022A0CBF1F460027742202FB014280F8F9
:1046F000267092F85D7080F82E70B2F86C7092F8A7
:1047000068E0B2F8702080F817E0032F2DD0042F56
:1047100029D0022F0CBF1F460027032AC77705D0D8
:10472000042A1ED0022A0CBF1E460026742303FB57
:1047300001432A491A8A80F82760A1FB0515024423
:10474000C5F3C00593F8693080F82F3085F0010576
:104750001574F0BD3246032F02767FF4E7AE37467C
:10476000EBE60126E2E70127D7E73746D5E7012741
:10477000BAE73746B8E70127ADE73746ABE7012789
:1047800090E737468EE7012783E7374681E7012721
:1047900065E7374663E7012756E7374654E70127C1
:1047A00037E7374635E7012728E7374626E7012769
:1047B0000AE7374608E70127FBE63746F9E601270F
:1047C000DEE63746DCE60127CFE63746CDE60127B1
:1047D000B3E60122A6E600BF89888888ABAAAAAA08
:1047E0002DE9F84390F8F130C1600646032B00F242
:1047F0005B81DFE803F05F585202022380F8C23089
:1048000080F8AA3006F1A80000F0DCFAF16806F1A1
:10481000C00000F0D7FA96F8F130042B04D8DFE896
:1048200003F0805003038A003046FFF751FE06F183
:10483000700400250F3611E011F0010F02F00303A0
:104840001BBF03EB41010E3103EB410189B2C9B239
:1048500020460135FDF712FD202D19D0AAB216F819
:10486000010F91080F460028E6D111F0010F02F068
:1048700003010B461BBF03EB47010E3101EB470160
:1048800089B2C9B220460135FDF716FD202DE5D1CC
:104890002046BDE8F843FDF75BBD012380F8C23038
:1048A00080F8AA30AEE70222012380F8C22080F807
:1048B000AA30A7E70122022380F8C22080F8AA309C
:1048C000A0E77268B2F84487742303FB08F84244F7
:1048D0000024B2F81090274606F1100508E0172CC6
:1048E00000F3D6802F700134202C05F101050CD087
:1048F0000F2CF4DC7368A1B2186800F0FDFA0134E3
:10490000202C287005F10105F2D1F3686A4AA2FB58
:104910000323B144C3F3C00383F0010389F82830B3
:1049200085E72022002106F1100004F017FB012387
:10493000337473747BE777685F4CB7F844274FF69E
:10494000FC731340742505FB0372581C1FFA80F892
:10495000117D317405FB0878991C98F814E086F8ED
:1049600018E089B205FB017103F1030E1FFA8EFCFA
:1049700091F8149086F8209005FB0C7C9CF814901C
:1049800086F8289092F8209086F8119098F8209058
:1049900086F8199091F8209086F821909CF8209044
:1049A00086F8299092F82C9086F8129098F82C901E
:1049B00086F81A9091F82C9086F822909CF82C900A
:1049C00086F82A9092F8389086F8139098F83890E4
:1049D00086F81B9091F8389086F823909CF83890D0
:1049E00086F82B9092F8449086F8149098F84490AA
:1049F00086F81C9091F8449086F824909CF8449096
:104A000086F82C9092F8509086F8159098F850906F
:104A100086F81D9091F8509086F825909CF850905B
:104A200086F82D9092F85C9086F8169098F85C9035
:104A300086F81E9091F85C9086F826909CF85C9021
:104A400086F82E9092F86820F27598F86820F27730
:104A500091F8682086F827209CF86810F26886F89C
:104A60002F10A4FB0224C4F3C00484F0010400222C
:104A700000E0581C05FB037302F108011B8A1A446D
:104A800016FA82F283B29E4514748AB2F1DACEE647
:104A9000A4F118039BB2726803EB430308EB830392
:104AA00013441B7D2B701EE70022022380F8C220D6
:104AB00080F8AA30A6E600BFABAAAAAA2DE9F04763
:104AC000B44B82B01B680193019A036BD31A1E2B5F
:104AD000064620DC96F8E830012B40F2DE8072B604
:104AE000D6F8E43062B69BB1B268C6F8EC3007EE97
:104AF000903A92ED007AF8EEE77AF5EE006AA7EECA
:104B0000A67A82ED007A72B60023C6F8E43062B667
:104B100002B0BDE8F08702639430FEF721FB06F196
:104B2000AC00FEF71DFB96F8C630002B40F0058167
:104B300096F89630002B3AD096F8AE30002B40F025
:104B4000A880012386F8F13006F170073846FDF79A
:104B5000B5FC00244FF0030A4FF004094FF074082D
:104B600002E00134202CB5D0E1B23846A5B2FDF701
:104B700065FB0028F5D00F2C21D9103DABB203F016
:104B8000030504359B0805EBC3039DB296F8F1308D
:104B9000032B1ED0042B43D0012B3BD0002BE0D1A4
:104BA000002D62D0012DDCD186F8F090D9E796F87F
:104BB000AE20002A00F0D28086F8F130C4E7AB08BE
:104BC00005F0030505EBC30596F8F130032BADB2F4
:104BD000E0D1072D71683AD90F2D49D9172D40F230
:104BE0009B80B1F84427183DADB208FB02F205EBFB
:104BF000450502EB85030B440A44597D81F0010110
:104C00005975002991884FF6FF7318BF01230B4493
:104C10009380A6E70F2DA4D87368A3F84457A0E7A4
:104C20007168B1F8442702F00303D21A02EBD502EF
:104C300092B205F0070308FB02F203EB430302EB19
:104C400083030B441A7D82F001021A7589E7B1F8DB
:104C5000442705EB450508FB02F202EB85054B19DD
:104C60001A7D82F001021A757BE786F8F0A078E7DA
:104C7000B1F84427083DADB208FB02F205EB45054B
:104C800002EB85030B441A8B02F0030201321A83F4
:104C900067E7022386F8F13056E772B6D6F8D830C7
:104CA000D6F8DC101A78087896F8E11096F8E0301B
:104CB000084202EA030248D096F8E23003F0030308
:104CC0000AB143F0040343F008039A10013B86F84D
:104CD000E2200D2B3FF604AF01A252F823F000BFF3
:104CE000874D00007B4D00006F4D00007B4D0000A4
:104CF000E14A0000634D0000874D0000874D000031
:104D0000634D0000E14A00007B4D00006F4D000044
:104D10007B4D0000874D0000B1F84427103DABB239
:104D200008FB02F203EB430302EB83030B449A8B71
:104D300002F0030201329A8313E70E21164801F0B4
:104D40002FFF164802F088FAF2E696F8E23003F0F8
:104D50000303002AB9D043F00403B6E796F8F03015
:104D60002AE7D6F8E430023BC6F8E430BAE6D6F8D3
:104D7000E4300233C6F8E430B4E6D6F8E430013B60
:104D8000C6F8E430AEE6D6F8E4300133C6F8E430D5
:104D9000A8E600BFA028FF1FE4F500006810FF1F71
:104DA00010B5044600230180C8B2A370012100F0B1
:104DB00037FF2078012100F001FF204610BD00BF21
:104DC000704700BF83784BB1012B03D000780021DE
:104DD00000F0F4BE01F01F011029F7D9007801217D
:104DE00000F0ECBE08B5C022014900F00FFA08BD82
:104DF000F4F50000704700BF2DE9F8430C884FEA36
:104E0000440808EB040600EB86060D46B37A074615
:104E100023B196F80B90B9F1000F10D0224644440C
:104E2000A4003B193A536A885A80AA889A80EA8873
:104E3000DA802A891A81EA7ADA72BDE8F883F3887F
:104E40007188B0881A06090402F0FE4301F4FE01DD
:104E50000B43013843F40043000243F0080300F41D
:104E60007060184301F0CEFD86F80A902A88D6E7D4
:104E7000F8B5044600F1C007012605E0013D23B363
:104E800025810C34A7421FD02589A37A002DF5D1A6
:104E9000002BF6D0E3886188A0881A06090401F483
:104EA000FE0102F0FE430B43013843F400430002CD
:104EB00043F0080300F47060184301F0A3FD0C34C4
:104EC00004F8025CA742DFD1F8BDE3886188A088BE
:104ED0001A06090401F4FE0102F0FE430B430138F7
:104EE00043F41043000243F0090300F470601843D8
:104EF00001F088FDA672C4E701EB410100EB8100DF
:104F0000807A704770B5002604460D4640F8046B61
:104F10003146242200F0A8F804F17800262201216D
:104F200000F0A2F804F1EC002A22022100F09CF823
:104F300004F5B0702E22032100F096F804F5EA7013
:104F40002522042100F090F804F512702722052193
:104F500000F08AF804F52F702822062100F084F86A
:104F600004F54C703122072100F07EF804F56970D9
:104F70003522082100F078F804F583602922092100
:104F800000F072F804F28C402B220A2100F06CF839
:104F900004F5A06038220B2100F066F804F274508A
:104FA00036220C2100F060F804F5BD6037220D2197
:104FB00000F05AF804F25C603C220E2100F054F834
:104FC00004F5DA603D220F2100F04EF8A4F84467A2
:104FD0002560A560E567C4F8F050C4F86451C4F8D2
:104FE000D851C4F84C52C4F8C052C4F83453C4F871
:104FF000A853C4F81C54C4F89054C4F80455C4F819
:105000007855C4F8EC55C4F86056C4F8D456204618
:1050100070BD00BF70B5051D064609D000F244748E
:10502000A54205D0743C204600F042F8A542F9D1D3
:10503000304670BD70B50E46041D00F24475204622
:105040003146743400F036F8AC42F8D170BD00BF80
:1050500010B5FF23044603800121172000F0E0FD76
:10506000204610BD704700BF70B5044600230820DD
:1050700015460E46208063602381A372A381E381DD
:1050800004F110006022094900F0C0F8A4F8706033
:105090006582E5836585E586A4F84250A4F84E5004
:1050A000A4F85A50A4F86650204670BDB4F600002B
:1050B000704700BF504B2DE9F043A3FB01231B09B0
:1050C00003EB4303B1EBC30F85B03CD10388044627
:1050D000002B3DD0C289FF2A42D0FF211346828196
:1050E000C181520013449B001033E218E55C5778ED
:1050F000B2F802809688B2F8089003F081FF25B3D9
:105100001FB33E4B0340002B25DB4B451DDC3C4BC6
:10511000B4F87050186859689A6801AB07C304A9BD
:10512000C6EB46160336228921F80C5D052360681C
:10513000ADF80A60ADF80680ADF80820ADF80C3087
:10514000FFF75AFE01E003F05BFF05B0BDE8F08316
:1051500083895A00C6E7013B63F003030133D4E7B8
:10516000284DA37A032B38D8DFE803F02A30210238
:1051700003F046FF85FB0023A3EBE07303EB43033F
:10518000C01AA289013800B20AB9431C27D01E4BAD
:1051900010440340002B2ADB9AB21346A2815A0026
:1051A000D11804EB8101497C0029DAD09AE703F099
:1051B00027FF154B0340002B14DBA3819BB2EEE7C6
:1051C000A389013303F00703A381E8E7A38933B17F
:1051D000013B03F007039AB2E0E7A389DFE7072367
:1051E0001A46DBE7013B63F007030133E5E7013BC8
:1051F00063F007030133CFE7ABAAAAAA030000803C
:1052000014F700005655555507000080844641EAC2
:10521000000313F003036DD1403A41D351F8043B2E
:1052200040F8043B51F8043B40F8043B51F8043B80
:1052300040F8043B51F8043B40F8043B51F8043B70
:1052400040F8043B51F8043B40F8043B51F8043B60
:1052500040F8043B51F8043B40F8043B51F8043B50
:1052600040F8043B51F8043B40F8043B51F8043B40
:1052700040F8043B51F8043B40F8043B51F8043B30
:1052800040F8043B51F8043B40F8043B51F8043B20
:1052900040F8043B51F8043B40F8043B403ABDD28F
:1052A000303211D351F8043B40F8043B51F8043B31
:1052B00040F8043B51F8043B40F8043B51F8043BF0
:1052C00040F8043B103AEDD20C3205D351F8043BC0
:1052D00040F8043B043AF9D2043208D0D2071CBF8C
:1052E00011F8013B00F8013B01D30B8803806046B5
:1052F000704700BF082A13D38B078DD010F003032B
:105300008AD0C3F10403D21ADB071CBF11F8013B9A
:1053100000F8013B80D331F8023B20F8023B7BE7E9
:10532000043AD9D3013A11F8013B00F8013BF9D214
:105330000B7803704B7843708B78837060467047AE
:1053400008B5104C08E0236859050DD423681A05E8
:105350000FD42368DB0411D423685803F3D500F07D
:10536000D7FD23685905F1D502F0E8FA23681A053C
:10537000EFD502F079FB2368DB04EDD502F00AFCDF
:10538000EAE700BF3480044008B5FFF7D9FF00BF4B
:10539000014B10221A80704700200540704700BF63
:1053A000094908B50B6830B16A461844A2F50052A5
:1053B000904202D20860184608BD03F0E1FA0C23BF
:1053C00003604FF0FF3008BDA80EFF1F084A137896
:1053D000802B01D0002070470649074B0748086022
:1053E000002119701378802BFCD00120704700BF7A
:1053F00003E007404480044001E007400000282209
:10540000094A1378012B01D00020704703F1804333
:1054100003F5FC23602119701378802BFCD1034B1A
:10542000034A1A600120704703E0074044800440AB
:1054300000000602704700BF3F28F0B415D8042AC8
:1054400013D8DFE802F0494C4F1446002E4E72B6D6
:105450001A6822F4702242F08070C3F38404284357
:105460001A6046F82410186062B6F0BC70474FF41A
:105470001025264C04EBC0035B681A6812F4E06246
:1054800035D0234A234C2448C2F82C4103F1404430
:10549000224EC2F83401A4F59220214FC2F83061A7
:1054A0007C28204EC2F83871C2F83C61CED9A4F5F0
:1054B00094227C2A19D9A4F596227C2A1FD9A4F516
:1054C00098227C2A1DD9A4F59A247C2CCDD8164E7E
:1054D000BDE74FF43025CCE74FF40025C9E74FF482
:1054E0004025C6E74FF42025C3E7104EAFE754F838
:1054F00030404FF4807084F880221860C1E70C4E71
:10550000A5E70C4EA3E700BFAC0EFF1F20F700007D
:105510000002FF1FF10CFF1F990CFF1FC50CFF1F9E
:105520006D0CFF1F410CFF1FF40FFF1F240FFF1F07
:10553000840FFF1FB40FFF1F30B4054B054D064C01
:10554000002210211A602A602060196030BC704768
:1055500014D0034004D0034000D003402DE9F843A9
:105560008F4B9048DFF870C28F4C9049DFF86CE2A7
:105570008F4E904D904F4FF000621A604FF0805266
:105580001A604FF000521A604FF080421A604FF0DC
:1055900000421A600022026028234EF6FF70CCF809
:1055A0000000CEF8003023600EF5012E0B60336052
:1055B0002B6006F500263B6005F50025A36207F584
:1055C00000278B6204F5012401F5012106F6E87637
:1055D00005F6E87507F57F6710310EF1100E2034DF
:1055E00033602B60CEF800303B600B602360734C5F
:1055F000BB618B6109212160A7F5002704F5805468
:10560000203F08343A602060BB60E36047F8041C28
:1056100004F5FD2407F5FE27043704F2FC7422602C
:105620003860A360FB6044F8041C083404F6FC7482
:10563000C7F8FC2F2060A4F5E124A4F2DC743360E9
:105640002B60C7F8F81F21685D4841F400712160A4
:1056500001685C4C0EF57F4E0EF1E80E07F58837B9
:1056600006F5803605F5803541F000710160CEF811
:10567000002047F6FF710822396033602B602260FA
:1056800002F07AF872B6504C504B514A1B682568AC
:10569000126862B6510102D5322B88BF0135C3F5BD
:1056A0002F3303F21F334B4FDFF82091DFF82081B7
:1056B0009B084FF47A72A7FB031302FB05F505EB79
:1056C0009305322672B6D9F800102268D8F800E0A7
:1056D00062B6C1F52F3303F21F339B08A7FB030308
:1056E0001EF0806FC5EB93034FF47A7002D032291D
:1056F00088BF013200FB0233B3F57A7F04D3013E49
:1057000005D005F57A75DDE701F0D4FFDAE701F0A1
:10571000CBF872B62D4B2E4A1B682568126862B60C
:10572000520102D5322B88BF0135C3F52F3303F266
:105730001F33284FDFF89490DFF894809B084FF4D4
:105740007A72A7FB031302FB05F505EB93054FF4F3
:10575000AF7672B6D9F800102268D8F800E062B6C9
:10576000C1F52F3303F21F339B08A7FB03031EF081
:10577000806FC5EB93034FF47A7002D0322988BF53
:10578000013200FB0233B3F57A7F04D3013E05D02A
:1057900005F57A75DDE701F08DFFDAE7BDE8F883FE
:1057A00004E100E004800340148003401C800340B7
:1057B000248003402C800340348003400080034059
:1057C0000480044000900C40A028FF1F18E000E077
:1057D00004ED00E0176CC116088003400C80034004
:1057E000A0F14203012B29D9002940F38E8010B487
:1057F0009B4B1B78012202FA03F48C4204D83F2809
:105800002DD95DF8044B7047C21E012A40D9A0F182
:105810001D02012A40F296800E286AD9A0F12302C7
:10582000032A6BD9A0F11002012A94BF8D4A8E4A37
:10583000126802FB011222FA03F32FE0884B1B7857
:105840000B2B08D90C2B1CBF0C3B194142280846D6
:1058500076D002F01FB8C3F10C039940F6E7834BF2
:1058600053F8301091F8804203EBC000002C70D147
:1058700043681A6842F003021A604FF4A2720120D2
:1058800081F880021A601A6822F020021A60B8E7D4
:10589000774A126802FB011222FA03F3821E242ABD
:1058A00000F25081DFE812F0470140013901320176
:1058B000D500CE00C700C000B9004E014E014E0118
:1058C000B2004E01AB00A4004E014E019D009600B7
:1058D0008F0088004E014E014E014E014E018100A5
:1058E0007A004E014E014E014E0173006C006500BE
:1058F0005E0044F28412C240D2078FD55D4A12681E
:1059000002FB011222FA03F3C8E73F283FF67BAF00
:10591000564B53F8302092F8801203EBC000E1B9E7
:105920004368196821F00201196001204FF4A27147
:1059300082F8800219601A6822F020021A6070470B
:1059400001F08ABF4C4A126802FB011222FA03F3EB
:10595000A4E781F8802043688FE70121436882F83B
:105960000011E2E74549464A0B604FF4517313605A
:1059700047E74449444A0B604FF45173136040E7D2
:105980004249434A0B604FF45173136039E7414970
:10599000414A0B604FF45173136032E73F49404A6C
:1059A0000B604FF4517313602BE73E493E4A0B6086
:1059B0004FF45173136024E73C493D4A0B6040F2B9
:1059C000444313601DE73B493B4A0B6040F24443AC
:1059D000136016E739493A4A0B6040F244431360BA
:1059E0000FE73849384A0B6040F24443136008E738
:1059F0003649374A0B6040F24463136001E735498A
:105A0000354A0B6040F244631360FAE63349344A86
:105A10000B6040F244431360F3E63249324A0B60B4
:105A200040F244431360ECE63049314A0B6040F2E7
:105A300044431360E5E62F492F4A0B6040F244438C
:105A40001360DEE62D492E4A0B6040F2444313609A
:105A5000D7E62C492C4A0B6040F244431360D0E651
:105A60006010FF1F08900C400880034020F70000E2
:105A70000890034008900B4008800B4048900B4072
:105A80002CB0044040900B4028B0044038900B40AC
:105A900024B0044030900B4020B0044018800B40EC
:105AA0004CA0044010800B4048A0044018800340E4
:105AB00008B004401080034004B00440408003401C
:105AC00018C004403880034014C0044018900C40B3
:105AD00004A0044010900C4000A0044018900B401B
